:020000040000FA
:100000000C9462000C948A000C948A000C948A0070
:100010000C948A000C948A000C948A000C948A0038
:100020000C948A000C948A000C948A000C94CF05DE
:100030000C948A000C948A000C948A000C948A0018
:100040000C9485050C948A000C9453050C942D0592
:100050000C948A000C948A000C948A000C948A00F8
:100060000C948A000C948A000000000024002700F1
:100070002A0000000000250028002B0000000008D6
:10008000000201000003040700000000000000005F
:1000900000000000230026002900040404040404D6
:1000A0000404020202020202030303030303010227
:1000B00004081020408001020408102001020408F6
:1000C0001020D00611241FBECFEFD8E0DEBFCDBF79
:1000D00011E0A0E0B1E0E2E0F8E102C005900D928D
:1000E000A03AB107D9F722E0A0EAB1E001C01D9221
:1000F000A938B207E1F710E0C2E6D0E004C02197CA
:10010000FE010E94F90BC136D107C9F70E945A07B8
:100110000C94FF0B0C9400008F929F92AF92BF92B1
:10012000FF920F931F93CF93DF93F0906E022BE01B
:100130002F1508F44CC02091700208E512E0021B54
:10014000110927FD1395000F111F000F111F20919A
:100150006F02C8E8D0E0C21BD10927FDD395CC0FB0
:10016000DD1FCC0FDD1F4E010D2E000CAA08BB08B1
:100170009801012E000C440B550B281939094A0926
:100180005B09DC010E94830A24EB30E040E050E090
:100190000E94590A820E931EA41EB51E8C169D063F
:1001A0002CF0E801801691060CF4E4012297CC0FA4
:1001B000DD1F2FB7F8948F2D90E0FC01EE0FFF1F8D
:1001C000E80FF91FE75BFD4FD283C1832FBFDF919B
:1001D000CF911F910F91FF90BF90AF909F908F9004
:1001E0000895AF92BF92CF92DF92EF92FF920F935A
:1001F0001F93CF93DF936C017B018B01040F151FBD
:10020000EB015E01AE18BF08C017D10759F0699124
:10021000D601ED91FC910190F081E02DC601099588
:10022000892B79F7C501DF91CF911F910F91FF9035
:10023000EF90DF90CF90BF90AF900895FC01538D69
:10024000448D252F30E0842F90E0821B930B5417B0
:1002500010F0CF96089501970895FC01918D828D3D
:10026000981761F0A28DAE0FBF2FB11D5D968C91D6
:10027000928D9F5F9F73928F90E008958FEF9FEF15
:100280000895FC01918D828D981731F0828DE80FD1
:10029000F11D858D90E008958FEF9FEF0895FC018B
:1002A000918D228D892F90E0805C9F4F821B910958
:1002B0008F73992708958CEA91E00E944F0121E005
:1002C000892B09F420E0822F089580E090E0892BAB
:1002D00029F00E945B0181110C9400000895FC013B
:1002E000A48DA80FB92FB11DA35ABF4F2C91848D97
:1002F00090E001968F739927848FA689B7892C93F4
:10030000A089B1898C91837080648C93938D848D46
:10031000981306C00288F389E02D80818F7D808349
:100320000895EF92FF920F931F93CF93DF93EC0109
:1003300081E0888F9B8D8C8D98131AC0E889F9898C
:10034000808185FF15C09FB7F894EE89FF8960838F
:10035000E889F98980818370806480839FBF81E010
:1003600090E0DF91CF911F910F91FF90EF90089552
:10037000F62E0B8D10E00F5F1F4F0F731127E02E2D
:100380008C8D8E110CC00FB607FCFACFE889F98965
:10039000808185FFF5CFCE010E946F01F1CFEB8DFB
:1003A000EC0FFD2FF11DE35AFF4FF0829FB7F89439
:1003B0000B8FEA89FB8980818062CFCFCF93DF9357
:1003C000EC01888D8823B9F0AA89BB89E889F9896D
:1003D0008C9185FD03C0808186FD0DC00FB607FCA2
:1003E000F7CF8C9185FFF2CF808185FFEDCFCE01D5
:1003F0000E946F01E9CFDF91CF910895833081F0A2
:1004000028F4813099F08230A9F008958730A9F05E
:100410008830C9F08430B1F4809180008F7D03C0B2
:10042000809180008F7780938000089584B58F77C6
:1004300084BD089584B58F7DFBCF8091B0008F7708
:100440008093B00008958091B0008F7DF9CFCF9355
:10045000DF93282F30E0F901E458FF4F8491F90130
:10046000E255FF4FD491F901E656FF4FC491CC23DA
:10047000A1F081110E94FE01EC2FF0E0EE0FFF1FB2
:10048000E057FF4FA591B491EC91ED2381E090E00E
:1004900009F480E0DF91CF91089580E090E0FACFF9
:1004A0001F93CF93DF93282F30E0F901E458FF4FDB
:1004B0008491F901E255FF4FD491F901E656FF4FBF
:1004C000C491CC23A9F0162F81110E94FE01EC2FBC
:1004D000F0E0EE0FFF1FEE58FF4FA591B4918FB7DC
:1004E000F894EC91111108C0D095DE23DC938FBFF6
:1004F000DF91CF911F910895DE2BF8CFCF93DF933B
:1005000090E0FC01E255FF4F249186569F4FFC017D
:1005100084918823C9F090E0880F991FFC01E85965
:10052000FF4FA591B491FC01EE58FF4FC591D491B6
:1005300061110DC09FB7F8948C91209582238C9304
:100540008881282328839FBFDF91CF91089562304F
:1005500051F49FB7F8943C91822F809583238C931C
:10056000E8812E2BEFCF8FB7F894EC912E2B2C93A4
:100570008FBFEACF3FB7F8948091A6019091A70171
:10058000A091A801B091A90126B5A89B05C02F3F55
:1005900019F00196A11DB11D3FBFBA2FA92F982FA9
:1005A0008827BC01CD01620F711D811D911D42E0A4
:1005B000660F771F881F991F4A95D1F708958F926C
:1005C0009F92AF92BF92CF92DF92EF92FF924B0138
:1005D0005C010E94BA026B017C010E94BA026C1994
:1005E0007D098E099F09683E734081059105A8F336
:1005F00021E0821A9108A108B10888EEC80E83E0B4
:10060000D81EE11CF11C81149104A104B10429F746
:10061000FF90EF90DF90CF90BF90AF909F908F9022
:100620000895089590E080E00895CF93DF93EC0162
:1006300060E08E810E94500261E08E810E94500233
:1006400060E08E810E9450028BE891E00197F1F703
:10065000DF91CF910895CF92DF92EF92FF920F93A7
:100660001F93CF93DF936C017C0187E0E80EF11CB0
:10067000D0E0C0E0062F10E0B8010C2E02C0759546
:1006800067950A94E2F76170F70181917F010E94FA
:1006900050022196C430D10579F7C601DF91CF9180
:1006A0001F910F91FF90EF90DF90CF900C94150366
:1006B000CF92DF92EF92FF920F931F93CF93DF932E
:1006C000EC01F62E642F8C810E9450028D818F3FA9
:1006D00019F060E00E9450020F2D10E08F8584FF1A
:1006E00025C06E0187E0C80ED11CF12CE12CB801A9
:1006F0000E2C02C0759567950A94E2F76170F601B9
:1007000081916F010E945002FFEFEF1AFF0A88E00B
:10071000E816F10461F7CE01DF91CF911F910F919F
:10072000FF90EF90DF90CF900C941503B80184E018
:10073000759567958A95E1F7CE010E942B036F2D81
:10074000CE01DF91CF911F910F91FF90EF90DF903D
:10075000CF900C942B0340E0682F81E792E00C943B
:10076000580390918402891710F08FEF890FE82FBA
:10077000F0E0EF58FD4F848980680C94AB0381E072
:100780000E94AB038BE39FE10197F1F70895CF93AC
:10079000DF93823029F490918002986090938002D8
:1007A000809384021092850280E48093860280E127
:1007B0008093870280E58093880261E080917502D2
:1007C0000E947E02809176028F3F19F061E00E94C4
:1007D0007E0261E0809177020E947E02C1E7D2E052
:1007E0009E01215732408091800284FD0BC084E03D
:1007F00090E021962817390744F461E08E810E9429
:100800007E02EECF88E090E0F4CF8BE39DE001978D
:10081000F1F760E0809175020E94500260E08091E3
:1008200077020E945002809176028F3F19F060E0BB
:100830000E9450028091800284FD34C063E081E711
:1008400092E00E942B03CBE4D6E4CE010197F1F7AE
:1008500063E081E792E00E942B032197F1F763E0C8
:1008600081E792E00E942B0383E592E00197F1F784
:1008700062E081E792E00E942B0380918002806217
:100880000E94AB0384E0809381028CE00E94AB0362
:100890000E94BF0382E08093820286E0DF91CF91C5
:1008A0000C94AB0380620E94AB038BE496E4019747
:1008B000F1F78091800280620E94AB0383E592E0B1
:1008C0000197F1F78091800280620E94AB03D5CF3F
:1008D00041E00E94580381E090E008950F931F9338
:1008E000ECEBF0E06491E8EAF0E0E491F0E0EE0F88
:1008F000FF1FE057FF4F8591949100E412E42FE031
:1009000030E0462F0E948B06611571058105910527
:1009100029F06F5F7F4F8F4F9F4F9F701F910F91F7
:100920000895FB0101900020E9F73197AF01461BC4
:10093000570BDC01ED91FC910280F381E02D0994CD
:100940004F925F926F927F928F929F92AF92BF92DF
:10095000CF92DF92EF92FF920F931F93CF93DF938B
:10096000CDB7DEB7A1970FB6F894DEBF0FBECDBFEF
:100970008C016B01770FEE08FF08F7FE49C0DC0120
:10098000ED91FC910190F081E02D6DE209955C0103
:1009900022273327A9012C193D094E095F0919A205
:1009A000FE01B1967F019AE0492E512C612C712CE9
:1009B000CA01B901A30192010E948B0A605DD701AF
:1009C0006E937D01211531054105510589F790E0B0
:1009D00080E0109721F0BD01C8010E9491048A0DAA
:1009E0009B1DA1960FB6F894DEBF0FBECDBFDF9161
:1009F000CF911F910F91FF90EF90DF90CF90BF901C
:100A0000AF909F908F907F906F905F904F900895E0
:100A1000A701960119A2FE01B1967F018AE0882EF6
:100A2000912CA12CB12CCA01B901A50194010E94FD
:100A30008B0A605DD7016E937D012115310541055B
:100A4000510589F790E080E0109759F2BD01C80187
:100A50000E949104C6CF0C9491041F920F920FB67E
:100A60000F9211242F933F934F935F936F937F9334
:100A70008F939F93AF93BF93EF93FF938CEA91E093
:100A80000E946F01FF91EF91BF91AF919F918F9164
:100A90007F916F915F914F913F912F910F900FBE7A
:100AA0000F901F9018951F920F920FB60F9211245E
:100AB0002F938F939F93EF93FF93E091BC01F0915D
:100AC000BD018081E091C201F091C30182FD1BC094
:100AD00090818091C5018F5F8F732091C60182172D
:100AE00041F0E091C501F0E0E455FE4F958F809311
:100AF000C501FF91EF919F918F912F910F900FBEA4
:100B00000F901F9018958081F4CF1F920F920FB60F
:100B10000F9211242F933F938F939F93AF93BF9383
:100B20008091A2019091A301A091A401B091A5018F
:100B30003091A10123E0230F2D3758F50196A11D17
:100B4000B11D2093A1018093A2019093A301A093D2
:100B5000A401B093A5018091A6019091A701A09155
:100B6000A801B091A9010196A11DB11D8093A60114
:100B70009093A701A093A801B093A901BF91AF9151
:100B80009F918F913F912F910F900FBE0F901F90CB
:100B9000189526E8230F0296A11DB11DD2CF1F92F2
:100BA0000F920FB60F9211242F933F934F935F93A1
:100BB0006F937F938F939F93AF93BF93CF93DF9365
:100BC000EF93FF938091A001C0916D02D0E087FF69
:100BD00024C010928500109284008091A0018F5F44
:100BE0008093A0018091A001082E000C990B8C1716
:100BF0009D0724F48091A0018C30C4F18091840081
:100C000090918500049680349C4908F47AC08091C4
:100C1000840090918500049676C08091A001082EF2
:100C2000000C990B8C179D07C4F6E091A0018E2F44
:100C3000EE0F990BFC01EE0FFF1FE80FF91FE75BAA
:100C4000FD4F808186FFC9CFE091A0018E2FEE0F6E
:100C5000990BFC01EE0FFF1FE80FF91FE75BFD4F3B
:100C6000808160E08F730E945002B7CF2091840092
:100C700030918500E091A0018E2FEE0F990BFC01C1
:100C8000EE0FFF1FE80FF91FE75BFD4F8181928197
:100C9000820F931F9093890080938800E091A001B8
:100CA0008E2FEE0F990BFC01EE0FFF1FE80FF91FBF
:100CB000E75BFD4F808186FF11C0E091A0018E2F80
:100CC000EE0F990BFC01EE0FFF1FE80FF91FE75B1A
:100CD000FD4F808161E08F730E945002FF91EF9180
:100CE000DF91CF91BF91AF919F918F917F916F9144
:100CF0005F914F913F912F910F900FBE0F901F90DA
:100D0000189580E49CE990938900809388008FEF88
:100D10008093A001E3CFCF92DF92EF92FF920F93E7
:100D20001F93E82FF92F05C001501109210931093E
:100D300061F1908196239417B9F305C00150110910
:100D40002109310911F1908196239413F7CFC12C19
:100D5000D12CE12CF12C0AC08FEFC81AD80AE80A6E
:100D6000F80A0C151D052E053F0579F080818623B4
:100D7000841791F36C2D7D2D8E2D9F2D1F910F913A
:100D8000FF90EF90DF90CF90089560E070E080E0FA
:100D900090E01F910F91FF90EF90DF90CF9008951A
:100DA000CF931092AF011092AE0188EE93E0A0E0D5
:100DB000B0E08093B0019093B101A093B201B093E1
:100DC000B3018AE091E09093AD018093AC0185EC92
:100DD00090E09093B9018093B80184EC90E09093F7
:100DE000BB018093BA0180EC90E09093BD018093A9
:100DF000BC0181EC90E09093BF018093BE0182EC36
:100E000090E09093C1018093C00186EC90E09093B4
:100E1000C3018093C2011092C5011092C6011092C5
:100E2000C7011092C80110927402109273028CE1F3
:100E300091E090937202809371028CE0809375022E
:100E4000CFEFC093760282E08093770283E08093B5
:100E5000780284E08093790285E080937A0286E0CC
:100E600080937B0210927C0210927D0210927E028F
:100E700010927F021092800281E00E94C70380914D
:100E80006D028C30A0F491E0980F90936D028093E6
:100E90006E0290E0FC01EE0FFF1FE80FF91FE75B09
:100EA000FD4F88EB9BE092838183CF910895C0939F
:100EB0006E02FBCF789484B5826084BD84B5816076
:100EC00084BD85B5826085BD85B5816085BD809115
:100ED0006E00816080936E0010928100809181008D
:100EE0008260809381008091810081608093810085
:100EF000809180008160809380008091B100846047
:100F00008093B1008091B00081608093B0008091A7
:100F10007A00846080937A0080917A008260809366
:100F20007A0080917A00816080937A0080917A00C3
:100F3000806880937A001092C100E091BC01F0912A
:100F4000BD0182E08083E091B801F091B901108287
:100F5000E091BA01F091BB018FEC80831092C40143
:100F6000E091C001F091C10186E08083E091BE0173
:100F7000F091BF01808180618083E091BE01F0919A
:100F8000BF01808188608083E091BE01F091BF0144
:100F9000808180688083E091BE01F091BF018081F3
:100FA0008F7D808382E00E94C70362E08BE00E9415
:100FB0007E0262E088E00E947E0261E087E00E949B
:100FC0007E0261E08DE00E947E0280916E028C3094
:100FD00008F051C061E089E00E947E0280916E02BB
:100FE000282F30E0F901EE0FFF1FE20FF31FE75B40
:100FF000FD4F9081907C9960908310926F021092C7
:1010000070022CE0622F0E94ED0B829FB001112430
:1010100030E020E0AB01420F531FFA01EE0FFF1F3B
:10102000E40FF51FE75BFD4F908196FD16C02F5F23
:101030003F4F2C30310571F781110FC010928000A5
:1010400082E0809381001092850010928400B19A12
:1010500080916F00826080936F00E0916E028E2F0E
:1010600090E0FC01EE0FFF1FE80FF91FE75BFD4F5B
:1010700080818064808361E08FE00E947E0260E076
:101080008EE00E947E0261E080E10E947E0280E0AC
:101090000E94B10364E271E081E792E00E942B05B7
:1010A00068E873E180E090E00E94DF020E94BF03E5
:1010B00080E00E94B1036FE271E081E792E00E945C
:1010C0002B0581E00E94B10368E371E081E792E0C3
:1010D0000E942B0580910001882379F08BE00E940B
:1010E000270221E0892B09F420E0209300018BE006
:1010F0000E942702892BD9F3EDCF0E94BF0380E025
:101100000E94B10364E271E081E792E00E942B0546
:1011100081E00E94B1036DE070E081E792E00E94FF
:10112000A00461E087E00E94500290E080E00E940D
:101130008C0003E010E083E2E82EF12C90E0C92E51
:1011400090E0D92EC1E08BE00E9427025C0181E093
:10115000A114B10409F480E08093050188E00E94A5
:10116000270221E0892B09F420E020930401AB2819
:1011700031F58091020190910301892B09F09DC006
:101180000E94BF0380E00E94B10365E471E081E743
:1011900092E00E942B0581E00E94B10363E571E0BB
:1011A00081E792E00E942B0560ED77E080E090E01F
:1011B0000E94DF028BE00E942702892BD9F38091E5
:1011C0000401811150C180910201909103010D979A
:1011D00009F449C10E94BF0380E00E94B1036CE79B
:1011E00071E081E792E00E942B0581E00E94B1034B
:1011F00066E871E081E792E00E942B058AE590E0C5
:101200000E948C0060E087E00E94500261E08DE067
:101210000E945002809102019091030101969093E7
:10122000030180930201C093010160ED77E080E04B
:1012300090E00E94DF0280910101882309F4ECC054
:1012400060E08FE00E945002C8010197F1F761E071
:101250008FE00E945002C7010197F1F760E08FE034
:101260000E9450020E946E040E94F40A26E933E4B0
:101270004BE05DE30E94580B20E030E040E05FE38C
:101280000E94580B0E94BC0A7093AB016093AA01A4
:101290006E3171050CF0BDC0C093010161E080E1C9
:1012A0000E94500264EF71E080E090E00E94DF0253
:1012B00060E080E10E945002BECF0E94BF0381E047
:1012C0000E94B10363E671E081E792E00E942B0582
:1012D00060E087E00E94500261E08DE00E945002D1
:1012E0008AE590E00E948C00C093010168EB7BE0EE
:1012F00080E090E00E94DF0280910101882309F4E0
:101300005CC060E08FE00E945002C8010197F1F7D5
:1013100061E08FE00E945002C7010197F1F760E0A1
:101320008FE00E9450020E946E040E94F40A26E997
:1013300033E44BE05DE30E94580B20E030E040E0F6
:101340005FE30E94580B0E94BC0A7093AB0160934C
:10135000AA016AE671E08CEA91E00E942B05609197
:10136000AA017091AB018CEA91E00E94A00465E7AC
:1013700071E08CEA91E00E94910469E771E08CEAE7
:1013800091E00E9491048091AA019091AB010A978B
:101390008CF4C093010161E080E10E94500264EF8F
:1013A00071E080E090E00E94DF0260E080E10E9456
:1013B0005002A2CF10920101F8CF809102019091CA
:1013C0000301019790930301809302010E94BF03E0
:1013D00080E00E94B10364E271E081E792E00E9444
:1013E0002B0581E00E94B10360910201709103011D
:1013F00081E792E00E94A00460E08DE00E9450022C
:1014000061E087E00E94500290E080E00E948C0042
:10141000D1CE109201014CCF90E080E00E948C0070
:1014200060E08DE00E94500261E087E00E9450027F
:101430000E94BF0380E00E94B10366E971E081E78A
:1014400092E00E942B0581E00E94B10360910201AD
:101450007091030181E792E00E94A00488E00E945D
:101460002702892BD9F38091020190910301892BE6
:10147000A1F40E94BF0380E00E94B10365E471E023
:1014800081E792E00E942B0581E00E94B10363E5B1
:1014900071E081E792E00E942B05C114D10409F4A8
:1014A00052CE0E945B01882309F44DCE0E940000B9
:1014B0004ACE052E97FB1EF400940E94700A57FD39
:1014C00007D00E948B0A07FC03D04EF40C94700ADC
:1014D00050954095309521953F4F4F4F5F4F089560
:1014E00090958095709561957F4F8F4F9F4F089590
:1014F0000E94AD0AA59F900DB49F900DA49F800DF2
:10150000911D11240895B7FF0C94780A0E94780A5F
:10151000821B930B0895A1E21A2EAA1BBB1BFD018F
:101520000DC0AA1FBB1FEE1FFF1FA217B307E407C2
:10153000F50720F0A21BB30BE40BF50B661F771F1A
:10154000881F991F1A9469F76095709580959095FA
:101550009B01AC01BD01CF010895A29FB001B39FD3
:10156000C001A39F700D811D1124911DB29F700DAC
:10157000811D1124911D08950E94C30A6894B11120
:101580000C94520B08950E94370B88F09F5798F0E7
:10159000B92F9927B751B0F0E1F0660F771F881F78
:1015A000991F1AF0BA95C9F714C0B13091F00E9492
:1015B000510BB1E008950C94510B672F782F8827B9
:1015C000B85F39F0B93FCCF3869577956795B395B9
:1015D000D9F73EF490958095709561957F4F8F4F28
:1015E0009F4F0895E89409C097FB3EF4909580952D
:1015F000709561957F4F8F4F9F4F9923A9F0F92FD9
:1016000096E9BB279395F695879577956795B79556
:10161000F111F8CFFAF4BB0F11F460FF1BC06F5F3C
:101620007F4F8F4F9F4F16C0882311F096E911C04E
:10163000772321F09EE8872F762F05C0662371F06F
:1016400096E8862F70E060E02AF09A95660F771F83
:10165000881FDAF7880F9695879597F9089557FDB3
:101660009058440F551F59F05F3F71F04795880F10
:1016700097FB991F61F09F3F79F0879508951216A7
:1016800013061406551FF2CF4695F1DF08C0161653
:1016900017061806991FF1CF869571056105089404
:1016A0000895E894BB2766277727CB0197F908951B
:1016B0000E946B0B0C94DC0B0E94CE0B38F00E9446
:1016C000D50B20F0952311F00C94C50B0C94CB0B8B
:1016D00011240C94520B0E942F0B70F3959FC1F3B1
:1016E000950F50E0551F629FF001729FBB27F00DD0
:1016F000B11D639FAA27F00DB11DAA1F649F662725
:10170000B00DA11D661F829F2227B00DA11D621F73
:10171000739FB00DA11D621F839FA00D611D221F2D
:10172000749F3327A00D611D231F849F600D211D11
:10173000822F762F6A2F11249F5750409AF0F1F094
:1017400088234AF0EE0FFF1FBB1F661F771F881FFD
:1017500091505040A9F79E3F510580F00C94C50B65
:101760000C94520B5F3FE4F3983ED4F38695779543
:101770006795B795F795E7959F5FC1F7FE2B880FA3
:10178000911D9695879597F9089597F99F6780E839
:1017900070E060E008959FEF80EC089500240A94C3
:1017A0001616170618060906089500240A9412163C
:1017B0001306140605060895092E0394000C11F46F
:1017C000882352F0BB0F40F4BF2B11F460FF04C01C
:1017D0006F5F7F4F8F4F9F4F0895991B79E004C033
:1017E000991F961708F0961B881F7A95C9F7809560
:1017F0000895EE0FFF1F0590F491E02D0994F894E1
:10180000FFCF01010D000101000000009101F10076
:101810001E01DE014F012D0141010000000068049E
:10182000F1001203110357656C636F6D652121216F
:101830000047524F55502031200042593A41444907
:101840002C4A45525259005061726B696E672046AE
:10185000756C6C2100506C7A20436F6D65204C6173
:101860007465722100456E74657221004469737459
:10187000616E63653A200020636D000D0A005468B4
:10188000616E6B596F752100436F6D652042616316
:101890006B20536F6F6E210057656C636F6D652110
:0218A000000046
:107E0000112484B714BE81FFF0D085E080938100F7
:107E100082E08093C00088E18093C10086E0809377
:107E2000C20080E18093C4008EE0C9D0259A86E02C
:107E300020E33CEF91E0309385002093840096BBD3
:107E4000B09BFECF1D9AA8958150A9F7CC24DD24C4
:107E500088248394B5E0AB2EA1E19A2EF3E0BF2EE7
:107E6000A2D0813461F49FD0082FAFD0023811F036
:107E7000013811F484E001C083E08DD089C08234E0
:107E800011F484E103C0853419F485E0A6D080C0E4
:107E9000853579F488D0E82EFF2485D0082F10E0AE
:107EA000102F00270E291F29000F111F8ED06801E7
:107EB0006FC0863521F484E090D080E0DECF843638
:107EC00009F040C070D06FD0082F6DD080E0C81688
:107ED00080E7D80618F4F601B7BEE895C0E0D1E017
:107EE00062D089930C17E1F7F0E0CF16F0E7DF06D8
:107EF00018F0F601B7BEE89568D007B600FCFDCFD4
:107F0000A601A0E0B1E02C9130E011968C91119780
:107F100090E0982F8827822B932B1296FA010C0160
:107F200087BEE89511244E5F5F4FF1E0A038BF0790
:107F300051F7F601A7BEE89507B600FCFDCF97BE46
:107F4000E89526C08437B1F42ED02DD0F82E2BD052
:107F50003CD0F601EF2C8F010F5F1F4F84911BD097
:107F6000EA94F801C1F70894C11CD11CFA94CF0C13
:107F7000D11C0EC0853739F428D08EE10CD085E9AC
:107F80000AD08FE07ACF813511F488E018D01DD067
:107F900080E101D065CF982F8091C00085FFFCCF94
:107FA0009093C60008958091C00087FFFCCF809118
:107FB000C00084FD01C0A8958091C6000895E0E648
:107FC000F0E098E1908380830895EDDF803219F02E
:107FD00088E0F5DFFFCF84E1DECF1F93182FE3DFCA
:107FE0001150E9F7F2DF1F91089580E0E8DFEE27F6
:047FF000FF270994CA
:027FFE00040479
:00000001FF
